:020000040800F2
:100000000028002029110008790E00087F0E000842
:10001000850E00088B0E0008910E000800000000FD
:10002000000000000000000000000000970E000823
:10003000A30E000800000000AF0E0008BB0E000871
:100040007111000871110008711100087111000888
:100050007111000871110008711100087111000878
:100060007111000871110008711100087111000868
:100070007111000871110008711100087111000858
:100080007111000871110008711100087111000848
:100090007111000871110008711100087111000838
:1000A0007111000871110008711100087111000828
:1000B000C90E00087111000800000000711100084D
:1000C000711100080000000000000000711100081C
:1000D000000000007111000871110008000000000C
:1000E0007111000871110008711100080000000072
:1000F0000000000000000000000000000000000000
:0C01000000000000000000005FF808F1A3
:10010C0010B5054C237833B9044B13B10448AFF345
:10011C0000800123237010BD64000020000000004B
:10012C00C827000808B5034B1BB103490348AFF3BC
:10013C00008008BD0000000068000020C8270008EF
:10014C0080B400AF064B01221A60064B01221A60E4
:10015C00054B01221A6000BFBD4680BC704700BF32
:10016C0080000020840000208800002080B400AFB4
:10017C00034B01221A6000BFBD4680BC704700BF14
:10018C008400002080B400AF034B01221A6000BF32
:10019C00BD4680BC704700BF8800002080B400AF13
:1001AC00064B1B68012B04D1044B00221A6001235F
:1001BC0000E000231846BD4680BC7047800000203C
:1001CC0080B500AF1E4B1B681E4A13601E4B1B688C
:1001DC001B4A136004211D4801F0B0FA03461A466D
:1001EC00194B1A60164B1A68164B1B689A4225D18C
:1001FC00134B1A68144B1B689A421FD1144B1A6884
:10020C00114B1B689A420DD00F4B1B68104A1360A0
:10021C000D4B1B68002B11D1FFF792FF0D4BC82221
:10022C001A600BE00B4B1B68013B0A4A1360094B2D
:10023C001B68002B02D1064B01221A6000BF80BD47
:10024C0004000020000000200800002000080140ED
:10025C000C0000203000002080B500AF1E4B1B6846
:10026C001E4A13601E4B1B681B4A136004211D4859
:10027C0001F064FA03461A46194B1A60164B1A68B9
:10028C00164B1B689A4225D1134B1A68144B1B68EA
:10029C009A421FD1144B1A68114B1B689A420DD00D
:1002AC000F4B1B68104A13600D4B1B68002B11D1B0
:1002BC00FFF75CFF0D4BC8221A600BE00B4B1B6861
:1002CC00013B0A4A1360094B1B68002B02D1064BF9
:1002DC0001221A6000BF80BD140000201000002015
:1002EC0018000020000801401C00002030000020F5
:1002FC0080B500AF1E4B1B681E4A13601E4B1B685B
:10030C001B4A136004211D4801F018FA03461A46D3
:10031C00194B1A60164B1A68164B1B689A4225D15A
:10032C00134B1A68144B1B689A421FD1144B1A6852
:10033C00114B1B689A420DD00F4B1B68104A13606F
:10034C000D4B1B68002B11D1FFF71CFF0D4BC82266
:10035C001A600BE00B4B1B68013B0A4A1360094BFC
:10036C001B68002B02D1064B01221A6000BF80BD16
:10037C00240000202000002028000020000801405C
:10038C002C0000203000002080B500AF574B1B68BC
:10039C00013B032B00F2A08001A252F823F000BF16
:1003AC00BD030008010400084D040008990400086E
:1003BC0001224FF480614E4801F0D7F901224FF42D
:1003CC0080514B4801F0D1F901224FF400614848AB
:1003DC0001F0CBF9454B02221A60464B1B68464A8A
:1003EC001360444B1B68642202FB03F3184600F0B5
:1003FC0019FC78E000224FF480613D4801F0B5F91A
:10040C0001224FF480513A4801F0AFF901224FF428
:10041C000061374801F0A9F9384B1B68012B5DD1FD
:10042C00324B03221A60364B1B68334A1360344B31
:10043C001B68642202FB03F3184600F0F3FB4DE04B
:10044C0001224FF480612A4801F08FF900224FF409
:10045C008051274801F089F901224FF400612448AA
:10046C0001F083F9254B1B68012B39D11F4B04225A
:10047C001A60244B1B68204A1360224B1B686422B1
:10048C0002FB03F3184600F0CDFB29E001224FF4E8
:10049C008061174801F069F901224FF4805114482A
:1004AC0001F063F900224FF40061114801F05DF98D
:1004BC00124B1B68012B15D10C4B02221A600D4BF1
:1004CC001B680D4A13600B4B1B68642202FB03F381
:1004DC00184600F0A7FB05E000BF04E000BF02E0F7
:1004EC0000BF00E000BF00BF80BD00BF8C0000203B
:1004FC00000C01403800002094000020A0000020D7
:10050C00400000203C00002080B500AF574B1B681A
:10051C00013B032B00F2A08001A252F823F000BF94
:10052C003D05000881050008CD05000819060008E6
:10053C0001224FF400514E4801F017F901224FF4FB
:10054C0000414B4801F011F901224FF48041484819
:10055C0001F00BF9454B03221A60464B1B68464AC7
:10056C001360444B1B68642202FB03F3184600F033
:10057C006DFB78E000224FF400513D4801F0F5F896
:10058C0001224FF400413A4801F0EFF801224FF4F8
:10059C008041374801F0E9F8384B1B68012B5DD1DD
:1005AC00324B03221A60334B1B68334A1360314BB6
:1005BC001B68642202FB03F3184600F047FB4DE076
:1005CC0001224FF400512A4801F0CFF800224FF4D9
:1005DC000041274801F0C9F801224FF4804124481A
:1005EC0001F0C3F8254B1B68012B39D11F4B04229A
:1005FC001A60234B1B68204A1360214B1B68642232
:10060C0002FB03F3184600F021FB29E001224FF412
:10061C000051174801F0A9F801224FF40041144889
:10062C0001F0A3F800224FF48041114801F09DF82D
:10063C00124B1B68012B15D10C4B02221A60114B6B
:10064C001B680D4A13600F4B1B68642202FB03F3FB
:10065C00184600F0FBFA05E000BF04E000BF02E022
:10066C0000BF00E000BF00BF80BD00BF90000020B5
:10067C00000C01404000002098000020A800002041
:10068C003C0000203800002080B500AF0122012181
:10069C00114801F06AF8012202210F4801F065F8B7
:1006AC00012204210C4801F060F8012208210A48BB
:1006BC0001F05BF801221021074801F056F80122E5
:1006CC002021054801F051F801224021024801F097
:1006DC004CF800BF80BD00BF000C014080B582B05B
:1006EC0000AF7860FFF7D0FF7B68092B00F21C810C
:1006FC0001A252F823F000BF2D070008750700086F
:10070C008B070008BF070008F30700081D08000846
:10071C00510800088F080008AF080008F708000807
:10072C0000220121834801F020F800220221814897
:10073C0001F01BF8002204217E4801F016F800227B
:10074C0008217C4801F011F800221021794801F0B1
:10075C000CF800222021774801F007F801224021F3
:10076C00744801F002F8E0E000220221714800F028
:10077C00FCFF002204216F4800F0F7FFD5E00022B7
:10078C0001216C4800F0F1FF00220221694800F0C1
:10079C00ECFF00220821674800F0E7FF002210213F
:1007AC00644800F0E2FF00224021624800F0DDFFC7
:1007BC00BBE0002201215F4800F0D7FF002202219C
:1007CC005C4800F0D2FF002204215A4800F0CDFF13
:1007DC0000220821574800F0C8FF0022402155484C
:1007EC0000F0C3FFA1E000220221524800F0BDFF3F
:1007FC00002204214F4800F0B8FF002220214D4870
:10080C0000F0B3FF002240214A4800F0AEFF8CE01C
:10081C0000220121474800F0A8FF0022042145488E
:10082C0000F0A3FF00220821424800F09EFF0022A6
:10083C002021404800F099FF002240213D4800F063
:10084C0094FF72E0002201213A4800F08EFF002252
:10085C000421384800F089FF00220821354800F0B7
:10086C0084FF00221021334800F07FFF002220215A
:10087C00304800F07AFF002240212E4800F075FF2E
:10088C0053E0002201212B4800F06FFF00220221CF
:10089C00284800F06AFF00220421264800F065FF7A
:1008AC0043E000220121234800F05FFF00220221D7
:1008BC00204800F05AFF002204211E4800F055FF8A
:1008CC00002208211B4800F050FF0022102119487B
:1008DC0000F04BFF00222021164800F046FF0022BA
:1008EC004021144800F041FF1FE000220121114873
:1008FC0000F03BFF002202210E4800F036FF0022E0
:10090C0004210C4800F031FF00220821094800F0B6
:10091C002CFF00222021074800F027FF0022402155
:10092C00044800F022FF00E000BF00BF0837BD46BE
:10093C0080BD00BF000C014080B500AF00F014FC7E
:10094C0000F070F800F0F6F800F0A8F82B4801F071
:10095C0075FB2B4B01221A602A4B01221A601920BD
:10096C0000F060F9192000F071F9642000F082F9B0
:10097C00642000F093F9142000F0A4F9FFF704FDB3
:10098C00FFF7C2FDFFF70AFC0346012B03D1202120
:10099C001D4800F002FF1D4B1B68012B15D100F008
:1009AC009DFAFFF771FE1A4B1B68052B02D1184BF1
:1009BC0000221A60164B1B685A1C15490A6018460F
:1009CC0000F0D8FA142000F07DF9124B1B68012BB3
:1009DC0007D1114B1B68013B0F4A1360642000F0D8
:1009EC0049F90E4B1B68012BC8D10D4B1B68013B01
:1009FC000B4A1360642000F051F9BFE7C8000020D7
:100A0C008C0000209000002000080140C000002055
:100A1C00C4000020B000002094000020B80000208A
:100A2C009800002080B590B000AF07F11803282281
:100A3C000021184601F0BAFE3B1D00221A605A60D4
:100A4C009A60DA601A610223BB610123BB62102336
:100A5C00FB6200237B6307F11803184600F0B6FE17
:100A6C000346002B01D000F0D7F80F237B60002346
:100A7C00BB600023FB6000233B6100237B613B1DBB
:100A8C000021184601F022F90346002B01D000F09A
:100A9C00C3F800BF4037BD4680BD000080B586B0AE
:100AAC0000AF07F1080300221A605A609A60DA60FE
:100ABC003B4600221A605A601D4B4FF080421A6070
:100ACC001B4B41F63F725A60194B00229A60184B2F
:100ADC000922DA60164B00221A61154B00229A612A
:100AEC00134801F05BFA0346002B01D000F094F898
:100AFC004FF48053BB6007F1080319460C4801F012
:100B0C00F1FB0346002B01D000F086F800233B607C
:100B1C0000237B603B461946054801F0B9FD0346AE
:100B2C00002B01D000F078F800BF1837BD4680BD0F
:100B3C00C800002080B586B000AF07F10803002282
:100B4C001A605A609A60DA60284B9B69274A43F016
:100B5C0004039361254B9B6903F004037B607B6862
:100B6C00224B9B69214A43F0080393611F4B9B69FD
:100B7C0003F008033B603B6800224FF4FC611C4807
:100B8C0000F0F3FD00224FF67F411A4800F0EDFD16
:100B9C001C23BB600023FB6001233B6107F10803AE
:100BAC001946134800F050FC4FF4FC63BB60012362
:100BBC00FB6000233B6102237B6107F108031946AC
:100BCC000B4800F041FC4FF67F43BB600123FB60F8
:100BDC0000233B6102237B6107F10803194605489A
:100BEC0000F032FC00BF1837BD4680BD001002403B
:100BFC0000080140000C014080B582B000AF786065
:100C0C0000F074F8FFF7DCFAFFF726FBFFF770FB38
:100C1C0000BF0837BD4680BD80B400AF72B600BFC0
:100C2C00FEE7000080B483B000AF7860054A7B68B3
:100C3C001360054B00221A6000BF0C37BD4680BC08
:100C4C00704700BF9C000020A000002080B483B03F
:100C5C0000AF7860054A7B681360054B00221A6070
:100C6C0000BF0C37BD4680BC704700BFA4000020FD
:100C7C00A800002080B483B000AF7860054A7B6880
:100C8C001360054B00221A6000BF0C37BD4680BCB8
:100C9C00704700BFAC000020B000002080B483B0CF
:100CAC0000AF7860054A7B681360054B00221A6020
:100CBC0000BF0C37BD4680BC704700BFB40000209D
:100CCC00B800002080B483B000AF7860054A7B6820
:100CDC001360054B00221A6000BF0C37BD4680BC68
:100CEC00704700BFBC000020C000002080B400AFE3
:100CFC00294B1B68002B0BDD274B1B68013B264A3D
:100D0C001360254B1B68002B02D1244B01221A6067
:100D1C00234B1B68002B0BDD214B1B68013B204A2E
:100D2C0013601F4B1B68002B02D11E4B01221A6053
:100D3C001D4B1B68002B0BDD1B4B1B68013B1A4A20
:100D4C001360194B1B68002B02D1184B01221A603F
:100D5C00174B1B68002B0BDD154B1B68013B144A12
:100D6C001360134B1B68002B02D1124B01221A602B
:100D7C00114B1B68002B0BDD0F4B1B68013B0E4A04
:100D8C0013600D4B1B68002B02D10C4B01221A6017
:100D9C0000BFBD4680BC70479C000020A000002016
:100DAC00A4000020A8000020AC000020B00000200F
:100DBC00B4000020B8000020BC000020C0000020BF
:100DCC0080B485B000AF154B9B69144A43F0010306
:100DDC009361124B9B6903F00103BB60BB680F4B23
:100DEC00DB690E4A43F08053D3610C4BDB6903F093
:100DFC0080537B607B680A4B5B68FB60FB6823F06D
:100E0C00E063FB60FB6843F08063FB60044AFB68B3
:100E1C00536000BF1437BD4680BC704700100240C1
:100E2C000000014080B584B000AF78607B681B681F
:100E3C00B3F1804F13D10C4BDB690B4A43F0010328
:100E4C00D361094BDB6903F00103FB60FB680022F3
:100E5C0000211C2000F0C1FA1C2000F0DAFA00BFBF
:100E6C001037BD4680BD00BF0010024080B400AFFB
:100E7C00FEE780B400AFFEE780B400AFFEE780B4BD
:100E8C0000AFFEE780B400AFFEE780B400AF00BF58
:100E9C00BD4680BC704780B400AF00BFBD4680BC6F
:100EAC00704780B400AF00BFBD4680BC704780B5B2
:100EBC0000AF00F09FF900BF80BD000080B500AF0F
:100ECC00024801F007F900BF80BD00BFC800002038
:100EDC0080B400AF00BFBD4680BC704780B400AF8B
:100EEC001F4B19681F4B83FB01239A10CB17D21A87
:100EFC0013469B0013445B00CA1A1B4B5A60184BD9
:100F0C001B68184A82FB03129210DB17D31A164A7D
:100F1C001360164B1968134B83FB01239A10CB17E4
:100F2C00D21A13469B0013445B00CA1A0E4BDA60AC
:100F3C000E4B1B680B4A82FB03129210DB17D31A61
:100F4C00094A93600A4B1B68064A82FB03129210F3
:100F5C00DB17D31A044A136100BFBD4680BC70472F
:100F6C009400002067666666480000209800002008
:100F7C003400002080B582B000AF78607B68042B11
:100F8C0000F2C28001A252F823F000BFAD0F00089E
:100F9C00F50F00083D10000885100008CD10000862
:100FAC00002240215B4800F0E0FB012280215948DF
:100FBC0000F0DBFB01224FF48071564800F0D5FBAA
:100FCC0001224FF40071534800F0CFFB01224FF483
:100FDC008061504800F0C9FB4F4A7B6852F82330BF
:100FEC001846FFF77BFB90E001224021494800F0B6
:100FFC00BCFB00228021474800F0B7FB01224FF4D4
:10100C008071444800F0B1FB01224FF4007141485B
:10101C0000F0ABFB01224FF480613E4800F0A5FBD1
:10102C003D4A7B6852F823301846FFF757FB6CE0BB
:10103C0001224021374800F098FB012280213548DD
:10104C0000F093FB00224FF48071324800F08DFBCE
:10105C0001224FF400712F4800F087FB01224FF45E
:10106C0080612C4800F081FB2B4A7B6852F82330BE
:10107C001846FFF733FB48E001224021254800F0D9
:10108C0074FB01228021234800F06FFB01224FF4F6
:10109C008071204800F069FB00224FF400711D485C
:1010AC0000F063FB01224FF480611A4800F05DFBF5
:1010BC00194A7B6852F823301846FFF70FFB24E0DF
:1010CC0001224021134800F050FB012280211148DD
:1010DC0000F04BFB01224FF480710E4800F045FBF1
:1010EC0001224FF400710B4800F03FFB00224FF43B
:1010FC008061084800F039FB074A7B6852F82330BE
:10110C001846FFF7EBFA00E000BF00BF0837BD46FA
:10111C0080BD00BF00080140480000200C480D496C
:10112C000D4A002302E0D458C4500433C4188C4236
:10113C00F9D30A4A0A4C002301E013600432A2429C
:10114C00FBD3FFF7C5FE01F00DFBFFF7F5FB704776
:10115C000000002064000020082800086400002023
:10116C0014010020FEE7000080B500AF084B1B689F
:10117C00074A43F010031360032000F023F90F20FB
:10118C0000F008F8FFF71CFE0023184680BD00BFD6
:10119C000020024080B582B000AF7860124B1A6814
:1011AC00124B1B7819464FF47A73B3FBF1F3B2FB75
:1011BC00F3F3184600F03BF90346002B01D0012352
:1011CC000EE07B680F2B0AD8002279684FF0FF30B5
:1011DC0000F003F9064A7B681360002300E001234A
:1011EC0018460837BD4680BD440000206000002032
:1011FC005C00002080B400AF054B1B781A46054BF1
:10120C001B681344034A136000BFBD4680BC704783
:10121C00600000201001002080B400AF024B1B685E
:10122C001846BD4680BC70471001002080B485B0C4
:10123C0000AF78607B6803F00703FB600C4BDB6846
:10124C00BB60BA684FF6FF031340BB60FB681A0221
:10125C00BB68134343F0BF6343F40033BB60044AE1
:10126C00BB68D36000BF1437BD4680BC704700BF5D
:10127C0000ED00E080B400AF044BDB681B0A03F008
:10128C0007031846BD4680BC704700BF00ED00E068
:10129C0080B483B000AF0346FB7197F90730002B85
:1012AC000BDBFB7903F01F02064997F907305B094A
:1012BC00012000FA02F241F8232000BF0C37BD4692
:1012CC0080BC704700E100E080B483B000AF0346FF
:1012DC003960FB7197F90730002B0ADB3B68DAB2F7
:1012EC000C4997F907301201D2B20B4483F8002352
:1012FC000AE03B68DAB20849FB7903F00F03043BC0
:10130C001201D2B20B441A7600BF0C37BD4680BC1A
:10131C00704700BF00E100E000ED00E080B489B050
:10132C0000AFF860B9607A60FB6803F00703FB61FB
:10133C00FB69C3F10703042B28BF0423BB61FB69C2
:10134C000433062B02D9FB69033B00E000237B61CD
:10135C004FF0FF32BB6902FA03F3DA43BB681A4061
:10136C007B699A404FF0FF317B6901FA03F3D94353
:10137C007B680B40134318462437BD4680BC70472E
:10138C0080B582B000AF78607B68013BB3F1807FA1
:10139C0001D301230FE00A4A7B68013B53600F2104
:1013AC004FF0FF30FFF790FF054B00229A60044B83
:1013BC0007221A60002318460837BD4680BD00BFBF
:1013CC0010E000E080B582B000AF78607868FFF77D
:1013DC002DFF00BF0837BD4680BD80B586B000AF7D
:1013EC000346B9607A60FB7300237B61FFF742FF11
:1013FC0078617A68B9687869FFF790FF024697F9C7
:10140C000F3011461846FFF75FFF00BF1837BD4677
:10141C0080BD80B582B000AF0346FB7197F90730F1
:10142C001846FFF735FF00BF0837BD4680BD80B5B5
:10143C0082B000AF78607868FFF7A2FF03461846C9
:10144C000837BD4680BD000080B48BB000AF78601B
:10145C00396000237B6200233B6248E101227B6AF6
:10146C0002FA03F3FB613B681B68FA691340BB612A
:10147C00BA69FB699A4240F037813B685B68A34AC2
:10148C0093425ED0A14A934275D8A14A934258D058
:10149C009F4A93426FD89F4A934252D09D4A93429F
:1014AC0069D89D4A93424CD09B4A934263D89B4A3D
:1014BC00934246D0994A93425DD8122B2AD8122BCC
:1014CC0059D801A252F823F04F150008291500082D
:1014DC003B1500087D1500088315000883150008CE
:1014EC008315000883150008831500088315000870
:1014FC008315000883150008831500088315000860
:10150C0083150008831500088315000831150008A1
:10151C0045150008824A934213D02CE03B68DB68E7
:10152C003B6229E03B68DB6804333B6224E03B68A8
:10153C00DB6808333B621FE03B68DB680C333B62C3
:10154C001AE03B689B68002B02D104233B6213E03A
:10155C003B689B68012B05D108233B627B68FA69C9
:10156C001A6109E008233B627B68FA695A6103E05F
:10157C0000233B6200E000BFBB69FF2B01D87B68F6
:10158C0001E07B6804337B61BB69FF2B02D87B6A6B
:10159C009B0002E07B6A083B9B003B617B691A68FD
:1015AC000F213B6901FA03F3DB431A40396A3B69AB
:1015BC0001FA03F31A437B691A603B685B6803F01A
:1015CC008053002B00F09080564B9B69554A43F09A
:1015DC0001039361534B9B6903F00103BB60BB6830
:1015EC00514A7B6A9B08023352F82330FB607B6ABA
:1015FC0003F003039B000F2202FA03F3DB43FA68A8
:10160C001340FB607B68494A93420DD07B68484A83
:10161C00934207D07B68474A934201D1022304E0EE
:10162C00032302E0012300E000237A6A02F00302A4
:10163C0092009340FA681343FB603B497B6A9B081A
:10164C000233FA6841F823203B685B6803F480336B
:10165C00002B06D0384B1A683749BB6913430B6013
:10166C0006E0354B1A68BB69DB43334913400B600A
:10167C003B685B6803F40033002B06D02E4B5A6892
:10168C002D49BB6913434B6006E02B4B5A68BB6971
:10169C00DB43294913404B603B685B6803F48013C0
:1016AC00002B06D0244B9A682349BB6913438B60EB
:1016BC0006E0214B9A68BB69DB431F4913408B60E2
:1016CC003B685B6803F40013002B06D01A4BDA68F6
:1016DC001949BB691343CB6006E0174BDA68BB6949
:1016EC00DB4315491340CB607B6A01337B623B685B
:1016FC001A687B6A22FA03F3002B7FF4AFAE00BFAB
:10170C0000BF2C37BD4680BC704700BF00003210B4
:10171C0000003110000022100000211000001210F7
:10172C0000001110001002400000014000080140B0
:10173C00000C0140001001400004014080B485B051
:10174C0000AF78600B467B807B689A687B8813407F
:10175C00002B02D00123FB7301E00023FB73FB7B06
:10176C0018461437BD4680BC704780B483B000AFB8
:10177C0078600B467B8013467B707B78002B03D004
:10178C007A887B681A6103E07B881A047B681A618B
:10179C0000BF0C37BD4680BC704780B485B000AF2D
:1017AC0078600B467B807B68DB68FB607A88FB6823
:1017BC0013401A04FB68D9437B880B401A437B689F
:1017CC001A6100BF1437BD4680BC704780B586B027
:1017DC0000AF78607B68002B01D101236CE27B6841
:1017EC001B6803F00103002B00F08780924B5B68B1
:1017FC0003F00C03042B0CD08F4B5B6803F00C0331
:10180C00082B12D18C4B5B6803F48033B3F5803F0B
:10181C000BD1894B1B6803F40033002B6CD07B6815
:10182C005B68002B68D1012346E27B685B68B3F5EB
:10183C00803F06D1804B1B687F4A43F48033136092
:10184C002EE07B685B68002B0CD17B4B1B687A4AC3
:10185C0023F480331360784B1B68774A23F480237E
:10186C0013601DE07B685B68B3F5A02F0CD1724B45
:10187C001B68714A43F4802313606F4B1B686E4ADC
:10188C0043F4803313600BE06B4B1B686A4A23F400
:10189C0080331360684B1B68674A23F48023136002
:1018AC007B685B68002B13D0FFF7B6FC386108E04F
:1018BC00FFF7B2FC02463B69D31A642B01D9032310
:1018CC00FAE15D4B1B6803F40033002BF0D014E0FD
:1018DC00FFF7A2FC386108E0FFF79EFC02463B696B
:1018EC00D31A642B01D90323E6E1534B1B6803F491
:1018FC000033002BF0D100E000BF7B681B6803F0C5
:10190C000203002B63D04C4B5B6803F00C03002BE1
:10191C000BD0494B5B6803F00C03082B1CD1464BD6
:10192C005B6803F48033002B16D1434B1B6803F028
:10193C000203002B05D07B681B69012B01D001230E
:10194C00BAE13D4B1B6823F0F8027B685B69DB0056
:10195C00394913430B603AE07B681B69002B20D09C
:10196C00364B01221A60FFF757FC386108E0FFF78D
:10197C0053FC02463B69D31A022B01D903239BE18A
:10198C002D4B1B6803F00203002BF0D02A4B1B6875
:10199C0023F0F8027B685B69DB00274913430B607B
:1019AC0015E0264B00221A60FFF736FC386108E080
:1019BC00FFF732FC02463B69D31A022B01D90323F1
:1019CC007AE11D4B1B6803F00203002BF0D17B68FE
:1019DC001B6803F00803002B3AD07B689B69002B33
:1019EC0019D0174B01221A60FFF716FC386108E07A
:1019FC00FFF712FC02463B69D31A022B01D90323D1
:101A0C005AE10D4B5B6A03F00203002BF0D001206E
:101A1C0000F0A6FA1CE00A4B00221A60FFF7FCFB50
:101A2C0038610FE0FFF7F8FB02463B69D31A022B33
:101A3C0008D9032340E100BF0010024000004242DD
:101A4C00800442429E4B5B6A03F00203002BE9D1F7
:101A5C007B681B6803F00403002B00F0A6800023B6
:101A6C00FB75974BDB6903F08053002B0DD1944B26
:101A7C00DB69934A43F08053D361914BDB6903F0EC
:101A8C008053BB60BB680123FB758E4B1B6803F452
:101A9C008073002B18D18B4B1B688A4A43F48073DC
:101AAC001360FFF7B9FB386108E0FFF7B5FB02469E
:101ABC003B69D31A642B01D90323FDE0814B1B68CE
:101ACC0003F48073002BF0D07B68DB68012B06D10C
:101ADC007B4B1B6A7A4A43F0010313622DE07B684F
:101AEC00DB68002B0CD1764B1B6A754A23F0010383
:101AFC001362734B1B6A724A23F0040313621CE0DB
:101B0C007B68DB68052B0CD16D4B1B6A6C4A43F070
:101B1C00040313626A4B1B6A694A43F001031362A4
:101B2C000BE0674B1B6A664A23F001031362644B9C
:101B3C001B6A634A23F0040313627B68DB68002B87
:101B4C0015D0FFF769FB38610AE0FFF765FB024629
:101B5C003B69D31A41F28832934201D90323ABE09B
:101B6C00574B1B6A03F00203002BEED014E0FFF777
:101B7C0053FB38610AE0FFF74FFB02463B69D31A6F
:101B8C0041F28832934201D9032395E04C4B1B6AF6
:101B9C0003F00203002BEED1FB7D012B05D1484B4A
:101BAC00DB69474A23F08053D3617B68DB69002BE8
:101BBC0000F08180424B5B6803F00C03082B61D072
:101BCC007B68DB69022B46D13F4B00221A60FFF782
:101BDC0023FB386108E0FFF71FFB02463B69D31A71
:101BEC00022B01D9032367E0354B1B6803F000730C
:101BFC00002BF0D17B681B6AB3F5803F08D1304BCA
:101C0C005B6823F400327B689B682D4913434B605F
:101C1C002B4B5B6823F474127B68196A7B685B6AD4
:101C2C000B43274913434B60274B01221A60FFF7E4
:101C3C00F3FA386108E0FFF7EFFA02463B69D31A72
:101C4C00022B01D9032337E01D4B1B6803F00073F3
:101C5C00002BF0D02FE01C4B00221A60FFF7DCFAAF
:101C6C00386108E0FFF7D8FA02463B69D31A022B19
:101C7C0001D9032320E0124B1B6803F00073002BE7
:101C8C00F0D118E07B68DB69012B01D1012313E053
:101C9C000B4B5B68FB60FB6803F480327B681B6A50
:101CAC009A4206D1FB6803F470127B685B6A9A4215
:101CBC0001D0012300E0002318461837BD4680BD33
:101CCC0000100240007000406000424280B584B0B9
:101CDC0000AF786039607B68002B01D10123D0E024
:101CEC006A4B1B6803F007033A689A4210D9674B9A
:101CFC001B6823F0070265493B6813430B60634B79
:101D0C001B6803F007033A689A4201D00123B8E03C
:101D1C007B681B6803F00203002B20D07B681B68D8
:101D2C0003F00403002B05D0594B5B68584A43F46D
:101D3C00E06353607B681B6803F00803002B05D03D
:101D4C00534B5B68524A43F460535360504B5B688F
:101D5C0023F0F0027B689B684D4913434B607B6812
:101D6C001B6803F00103002B40D07B685B68012BE0
:101D7C0007D1474B1B6803F40033002B15D101230B
:101D8C007FE07B685B68022B07D1414B1B6803F03B
:101D9C000073002B09D1012373E03D4B1B6803F04A
:101DAC000203002B01D101236BE0394B5B6823F05C
:101DBC0003027B685B68364913434B60FFF72CFAD0
:101DCC00F8600AE0FFF728FA0246FB68D31A41F2E2
:101DDC008832934201D9032353E02D4B5B6803F007
:101DEC000C027B685B689B009A42EBD1274B1B680B
:101DFC0003F007033A689A4210D2244B1B6823F075
:101E0C00070222493B6813430B60204B1B6803F00D
:101E1C0007033A689A4201D0012332E07B681B68C1
:101E2C0003F00403002B08D0194B5B6823F4E06229
:101E3C007B68DB68164913434B607B681B6803F0B7
:101E4C000803002B09D0124B5B6823F460527B68AB
:101E5C001B69DB000E4913434B6000F021F802466E
:101E6C000B4B5B681B0903F00F030A49CB5C22FA8E
:101E7C0003F3094A1360094B1B681846FFF78AF9EC
:101E8C00002318461037BD4680BD00BF002002401D
:101E9C0000100240F0270008440000205C000020E5
:101EAC0090B48AB000AF2A4B3C1D0FCB84E80F00D6
:101EBC0040F201233B800023FB610023BB61002324
:101ECC007B6200237B6100233B62224B5B68FB61DE
:101EDC00FB6903F00C03042B02D0082B03D02DE07C
:101EEC001D4B3B622DE0FB699B0C03F00F0307F1CC
:101EFC002802134413F8243C7B61FB6903F4803300
:101F0C00002B13D0134B5B685B0C03F0010307F140
:101F1C002802134413F8283CBB617B690E4A02FB70
:101F2C0003F2BB69B2FBF3F37B6204E07B690B4AFF
:101F3C0002FB03F37B627B6A3B6202E0064B3B6273
:101F4C0000BF3B6A18462837BD4690BC704700BF9F
:101F5C00E02700080010024000127A0000093D0042
:101F6C0080B485B000AF78600A4B1B680A4AA2FBAC
:101F7C0003235B0A7A6802FB03F3FB6000BFFB6878
:101F8C005A1EFA60002BF9D100BF00BF1437BD46B2
:101F9C0080BC704744000020D34D621080B582B0E5
:101FAC0000AF78607B68002B01D1012341E07B6896
:101FBC0093F83D30DBB2002B06D17B68002283F80E
:101FCC003C207868FEF72EFF7B68022283F83D20C8
:101FDC007B681A687B6804331946104600F06AFA6D
:101FEC007B68012283F846207B68012283F83E201F
:101FFC007B68012283F83F207B68012283F8402014
:10200C007B68012283F841207B68012283F84220FF
:10201C007B68012283F843207B68012283F84420EB
:10202C007B68012283F845207B68012283F83D20E0
:10203C00002318460837BD4680BD000080B485B02B
:10204C0000AF78607B6893F83D30DBB2012B01D098
:10205C00012335E07B68022283F83D207B681B68F6
:10206C00DA687B681B6842F00102DA607B681B68E7
:10207C00164A934209D07B681B68B3F1804F04D099
:10208C007B681B68124A934211D17B681B689B6862
:10209C0003F00703FB60FB68062B10D07B681B6802
:1020AC001A687B681B6842F001021A6007E07B68C3
:1020BC001B681A687B681B6842F001021A600023D7
:1020CC0018461437BD4680BC704700BF002C014039
:1020DC000004004080B582B000AF78607B681B685C
:1020EC001B6903F00203022B22D17B681B68DB689F
:1020FC0003F00203022B1BD17B681B686FF00202FA
:10210C001A617B6801221A777B681B689B6903F054
:10211C000303002B03D0786800F0B1F905E0786870
:10212C0000F0A4F9786800F0B3F97B6800221A7704
:10213C007B681B681B6903F00403042B22D17B68AA
:10214C001B68DB6803F00403042B1BD17B681B6842
:10215C006FF004021A617B6802221A777B681B6895
:10216C009B6903F44073002B03D0786800F087F967
:10217C0005E0786800F07AF9786800F089F97B68F6
:10218C0000221A777B681B681B6903F00803082B75
:10219C0022D17B681B68DB6803F00803082B1BD17A
:1021AC007B681B686FF008021A617B6804221A773F
:1021BC007B681B68DB6903F00303002B03D0786892
:1021CC0000F05DF905E0786800F050F9786800F0EF
:1021DC005FF97B6800221A777B681B681B6903F028
:1021EC001003102B22D17B681B68DB6803F01003F3
:1021FC00102B1BD17B681B686FF010021A617B6877
:10220C0008221A777B681B68DB6903F44073002B88
:10221C0003D0786800F033F905E0786800F026F90F
:10222C00786800F035F97B6800221A777B681B68A8
:10223C001B6903F00103012B0ED17B681B68DB6863
:10224C0003F00103012B07D17B681B686FF00102BF
:10225C001A617868FEF7D0FC7B681B681B6903F079
:10226C008003802B0ED17B681B68DB6803F0800336
:10227C00802B07D17B681B686FF080021A6178682D
:10228C0000F067FA7B681B681B6903F04003402B66
:10229C000ED17B681B68DB6803F04003402B07D131
:1022AC007B681B686FF040021A61786800F0F9F8DF
:1022BC007B681B681B6903F02003202B0ED17B6805
:1022CC001B68DB6803F02003202B07D17B681B689D
:1022DC006FF020021A61786800F032FA00BF0837FC
:1022EC00BD4680BD80B584B000AF786039607B6836
:1022FC0093F83C30012B01D10223B3E07B6801221F
:10230C0083F83C207B68022283F83D207B681B68A5
:10231C009B68FB60FB6823F07703FB60FB6823F48E
:10232C007F43FB607B681B68FA689A603B681B689C
:10233C00B3F5005F3ED0B3F5005F00F28780B3F5D4
:10234C00805F00F08580B3F5805F7FD8702B1AD04A
:10235C00702B7BD8602B50D0602B77D8502B3CD077
:10236C00502B73D8402B58D0402B6FD8302B64D0C7
:10237C00302B6BD8202B60D0202B67D8002B5CD057
:10238C00102B5AD062E07B6818683B6899683B68F0
:10239C005A683B68DB6800F05CF97B681B689B68DB
:1023AC00FB60FB6843F07703FB607B681B68FA6893
:1023BC009A604EE07B6818683B6899683B685A687D
:1023CC003B68DB6800F045F97B681B689A687B68A2
:1023DC001B6842F480429A603BE07B6818683B685B
:1023EC0059683B68DB681A4600F0BCF87B681B68D0
:1023FC005021184600F013F92BE07B6818683B68F5
:10240C0059683B68DB681A4600F0DAF87B681B6891
:10241C006021184600F003F91BE07B6818683B68E4
:10242C0059683B68DB681A4600F09CF87B681B68AF
:10243C004021184600F0F3F80BE07B681A683B6803
:10244C001B681946104600F0EAF802E000BF00E0F5
:10245C0000BF7B68012283F83D207B68002283F853
:10246C003C20002318461037BD4680BD80B483B095
:10247C0000AF786000BF0C37BD4680BC704780B49D
:10248C0083B000AF786000BF0C37BD4680BC70478E
:10249C0080B483B000AF786000BF0C37BD4680BC01
:1024AC00704780B483B000AF786000BF0C37BD4676
:1024BC0080BC704780B485B000AF786039607B68B1
:1024CC001B68FB607B68254A934207D07B68B3F19D
:1024DC00804F03D07B68224A934208D1FB6823F0DB
:1024EC007003FB603B685B68FA681343FB607B68B6
:1024FC001A4A934207D07B68B3F1804F03D07B68B4
:10250C00174A934208D1FB6823F44073FB603B6885
:10251C00DB68FA681343FB60FB6823F080023B68BE
:10252C005B691343FB607B68FA681A603B689A68C6
:10253C007B68DA623B681A687B689A627B68074A38
:10254C00934203D13B681A697B681A637B6801224A
:10255C005A6100BF1437BD4680BC7047002C014047
:10256C000004004080B487B000AFF860B9607A60B6
:10257C00FB681B6A7B61FB681B6A23F00102FB682A
:10258C001A62FB689B693B613B6923F0F0033B617A
:10259C007B681B013A6913433B617B6923F00A0397
:1025AC007B617A69BB6813437B61FB683A699A610A
:1025BC00FB687A691A6200BF1C37BD4680BC704745
:1025CC0080B487B000AFF860B9607A60FB681B6AB2
:1025DC0023F01002FB681A62FB689B697B61FB6845
:1025EC001B6A3B617B6923F470437B617B681B0333
:1025FC007A6913437B613B6923F0A0033B61BB68A1
:10260C001B013A6913433B61FB687A699A61FB6869
:10261C003A691A6200BF1C37BD4680BC704780B453
:10262C0085B000AF786039607B689B68FB60FB68A5
:10263C0023F07003FB603A68FB68134343F0070315
:10264C00FB607B68FA689A6000BF1437BD4680BC9B
:10265C00704780B487B000AFF860B9607A603B60B7
:10266C00FB689B687B617B6923F47F437B613B68E0
:10267C001A027B681A43BB6813437A6913437B6164
:10268C00FB687A699A6000BF1C37BD4680BC7047F6
:10269C0080B485B000AF786039607B6893F83C30CB
:1026AC00012B01D1022341E07B68012283F83C20FD
:1026BC007B68022283F83D207B681B685B68FB60AB
:1026CC007B681B689B68BB60FB6823F07003FB6036
:1026DC003B681B68FA681343FB607B681B68FA68ED
:1026EC005A607B681B68144A934209D07B681B684C
:1026FC00B3F1804F04D07B681B68104A93420CD115
:10270C00BB6823F08003BB603B685B68BA6813430B
:10271C00BB607B681B68BA689A607B68012283F88F
:10272C003D207B68002283F83C2000231846143798
:10273C00BD4680BC704700BF002C01400004004027
:10274C0080B483B000AF786000BF0C37BD4680BC4E
:10275C00704780B483B000AF786000BF0C37BD46C3
:10276C0080BC704770B500260C4D0D4C641BA4103A
:10277C00A64209D100F022F800260A4D0A4C641B2F
:10278C00A410A64205D170BD55F8043B98470136FC
:10279C00EEE755F8043B98470136F2E700280008AD
:1027AC0000280008002800080428000803460244FA
:1027BC00934200D1704703F8011BF9E7F8B500BF4D
:1027CC00F8BC08BC9E467047F8B500BFF8BC08BC06
:0427DC009E4670475E
:1027E00002030405060708090A0B0C0D0E0F101052
:1027F00000000000000000000102030406070809B1
:04280000310100089A
:042804000D010008BA
:1028080001000000010000000100000001000000BC
:1028180001000000010000000100000001000000AC
:10282800010000000100000001000000010000009C
:10283800C8000000040000000500000002000000BD
:10284800030000000024F400010000000200000062
:102858000300000004000000050000001000000054
:04286800010000006B
:0400000508001129B5
:00000001FF
